S01F000048756D616E204D616368696E6520496E746572666163652E7372656386
S11300000C943A000C9457000C9457000C9457002D
S11300100C9457000C9457000C9457000C94570000
S11300200C9457000C9457000C9457000C945700F0
S11300300C9457000C9457000C9457000C945700E0
S11300400C9457000C9457000C9457000C945700D0
S11300500C945700FC02FE0200030203040306038F
S113006008030A030C030E031003120314031603FC
S113007018031A0311241FBECFE5D4E0DEBFCDBFA1
S113008011E0A0E6B0E0EEEFF6E002C005900D92BC
S1130090A033B107D9F721E0A0E3B1E001C01D927C
S11300A0AA33B207E1F70E9459000C947D030C9423
S11300B000000E9489020E9430030E9473030E9480
S11300C063010E94AC02893619F41092340103C012
S11300D081E080933401C0E0D2E00F2EF2E8EF2EED
S11300E0F0E0FF2EF02D0F2EFDE68F2EF0E09F2E78
S11300F0F02D0F2EF3E0BF2EF02D11E00F2EF0E6C1
S1130100CF2EF0E0DF2EF02D05E0AA246894A2F8AB
S113011080913401833009F470C0843028F4813034
S1130120A1F0823080F509C0853009F479C08530AA
S113013008F46BC0863071F770C081E50E94A2029A
S11301400E94670110933401E3CF82E50E94A2026A
S11301500E94BD0183E50E94A2020E940E02843522
S113016031F40E941702D0933401C0E0D1CF853519
S113017079F6CF5FC33011F40E9480020E942902F5
S113018010933401C5CF86E50E94A2020E943B026F
S1130190813361F483EC99E00197F1F700C000002A
S11301A081E30E94A202B0923401B2CF823359F4A7
S11301B0A3ECB9E01197F1F700C000000E94A2027D
S11301C0A0923401A5CF833319F400933401A0CF56
S11301D00E942C03C60160EC40E00E9460038FE3A0
S11301E09DE0A3E081509040A040E1F700C00000F2
S11301F00E942C03D09334018BCF88E50E94A20285
S11302000E945802D093340183CF89E50E94A20250
S11302100E946C02D09334017BCF0E94800278CF7D
S113022087E50E94A2020E942C038FE996E8A1E0D0
S113023081509040A040E1F700C000000E94BD0141
S11302400E94AC02843539F50E9417020E946701AE
S11302500E942C030E94BD018FE39DE0A3E0815026
S11302609040A040E1F700C000000E942C03C401AC
S113027060EC40E00E9460038FE39DE0A3E08150C6
S11302809040A040E1F700C000000E942C03B0920F
S11302903401C0E03DCFCF5F0E942902C33011F486
S11302A00E948002C70160EC40E00E9460038FE37B
S11302B09DE0A3E081509040A040E1F700C0000021
S11302C00E942C0325CFA69A0895AE9A0895CF9341
S11302D040E060EC83E990E00E94600385E90E94BD
S11302E0210310923501C0E00E94B0020E94F20284
S11302F0EC2FF0E0EA5CFE4F80838AE20E943F0329
S1130300E0913501C1E0CE0FC0933501C43060F3F4
S11303100E942C032FE986E891E021508040904010
S1130320E1F700C0000010923501E0E0F0E0EA5C83
S1130330FE4F808190E00E94A20283ED90E301973A
S1130340F1F700C00000E0913501EF5FE093350163
S1130350E43060F340E060EC84EA90E00E946003E3
S11303609FE32DE083E0915020408040E1F700C0FE
S113037000000E942C03CF910895CF93DF9340E0B7
S113038060EC85EB90E00E94600385E90E94210304
S113039010923501C0E00E94B0020E94F202EC2FDC
S11303A0F0E0E05DFE4F80838AE20E943F03E0912B
S11303B03501C1E0CE0FC0933501C43060F3C0E312
S11303C0D1E0888190E00E94A20283ED90E301973E
S11303D0F1F700C00000898190E00E94A20283ED41
S11303E090E30197F1F700C000008A8190E00E9439
S11303F0A20283ED90E30197F1F700C000008B8126
S113040090E00E94A20283ED90E30197F1F700C00F
S113041000000E942C03DF91CF9108950E94AC024A
S1130420E5EAFEE03197F1F700C00000089541E0ED
S113043060EC86EC90E00E9460032FE38DE093E093
S1130440215080409040E1F700C000000E942C033E
S1130450089541E060EC81ED90E00E9460032FE399
S11304608DE093E0215080409040E1F700C000000F
S11304700E942C03089540E060E88CED90E00E9417
S1130480600342E060EC8AEE90E00E94600342E088
S113049060E986EF90E00E94600342E060ED83E053
S11304A091E00E9460030E94B0020E94F20208954B
S11304B00E942C0340E060EC82E191E00E94600322
S11304C02FE38DE093E0215080409040E1F700C09D
S11304D000000E942C0308950E942C0340E060EC6D
S11304E081E291E00E9460032FE38DE093E02150CC
S11304F080409040E1F700C000000E942C03089562
S113050081E191E00E944A030E9475030E94650103
S1130510FBCF59988CE089B9539A549A529880B574
S1130520806880BD80B58F7E80BD80B58F7D80BDA5
S113053080B5877F80BD80B5846080BD80B58260D2
S113054080BD08955D9BFECF8CB983EC99E0019743
S1130550F1F700C0000008955F9BFECF8CB10895B1
S113056087B3807F87BB80EF88BBA1E0B0E060E009
S113057070E0862F9D01062E02C0220F331F0A94BD
S1130580E2F727BBB49B0FC045E050E091E026B3EF
S1130590E42F30E0042E02C0359527950A94E2F743
S11305A020FD15C002C0E4E090E041E050E002C04C
S11305B0440F551FEA95E2F726B330E02423352390
S11305C0232BD1F38F5F990F990F890F08959F5FA4
S11305D04F5F5F4F9430D9F66F5F7F4F6430710582
S11305E041F6C5CF90E0FC013197E031F10520F5EB
S11305F0E65DFF4F0C94770387E3089584E3089541
S113060081E3089583E6089588E3089585E30895D2
S113061082E3089580E3089589E3089586E30895C5
S113062083E308958DE3089585E208958AE20895A9
S11306308DE208958BE2089580E00895A89AA89821
S113064008958BBBAA980E941E0381EE94E0019743
S1130650F1F700C00000089581E00E94210308958D
S11306608FEF8ABB87E084BBA998AA980E942C03C9
S113067088E30E9421038EE00E94210308958BBB2E
S1130680AA9A0E941E0381EE94E00197F1F700C03C
S1130690000008950F931F93CF93FC01808188235A
S11306A059F08F01C0E00E943F03CF5FF801EC0FC7
S11306B0F11D80818111F7CFCF911F910F91089582
S11306C0CF93DF93EC01862F840F0E94210381EEE8
S11306D094E00197F1F700C00000CE010E944A03A4
S11306E0DF91CF910895A39A0895AB9A0895EE0FE0
S11106F0FF1F0590F491E02D0994F894FFCFBC
S11306FE77726F6E672063686F69636500706173EC
S113070E73776F7264206973206368616E676564C2
S113071E2000456E74657220706173732061676189
S113072E696E00506C7A20656E746572206120705B
S113073E6173730055722050617373204973205393
S113074E6176656400456E74657220706173732002
S113075E616761696E0052696768742050617373D2
S113076E0057726F6E67205061737300496620756F
S113077E2077616E7420746F3A0031204F70656E6D
S113078E20646F6F72003220436C6F736520646F48
S113079E6F720033204368616E67652070617373F6
S11307AE2E00446F6F72206973204F70656E6564FE
S11307BE00446F6F7220697320636C6F73656400FD
S9030000FC
